:100000002FC134C133C132C131C130C12FC12EC162
:100010002DC12CC12BC12AC129C128C127C1004033
:10002000017CA4000025097F073F000000000000BC
:100030003001000960904CFFFFFFFFFFFFFFFF4F03
:10004000860559CB120047002C035C00570387003C
:100050006F021100380092039B069F060400000007
:1000600000000000000080003F00802CCC00000059
:100070000001C0000001C0000001C0000001C0007C
:100080000001C0000001C0000000000000000000EE
:1000900000000000D0222027413EB29A4ED6B18EF9
:1000A0007C638B767062856953485D94B246C6EE78
:1000B0008C62769C00003500000CCA000000000035
:1000C00000000000020004FF00C00000000505075A
:1000D000004C04CC98FF4921888E0000007C23D678
:1000E000D00010000000105102040F00000C0C00A2
:1000F0000000000000000000007F7F114C030B0493
:10010000640B048F00000003000802F0A4C2AEA438
:1001100004267CC2960000040880E2A40F2CAC8068
:1001200099C22302000000000000000000006003EC
:1001300000CF2620DC11E02F20F0401A0000007FC5
:100140001F2C000000000000800002030000F81FC8
:10015000F81FF81ED020F80A001F20003808240AD3
:100160000BEA1A00001A00C43F04049B8009E9EF5F
:100170007F40D20DD8DF3F000000000800B405002A
:1001800000000000000000000000040006823000B3
:1001900000301142300194117F007400060092017A
:1001A00001960500000000000000000000002B0385
:1001B0001FFFFFCFFFFF1F00A41E008000000000F4
:1001C00008000010B4CCB30002000403000400696E
:1001D00000FFFF07FFFF07004400E0283EC00000CB
:1001E000006801C0B4CC5ACC4C00000000050007E8
:1001F00018004D3100007F7F7F00000000000000EC
:100200000010B30600002006858200000000800474
:1002100000180F004000010000000F000003000262
:10022000002F003A0615000220300A0000000004EA
:100230000127067E0610C000C00000440010100018
:100240000102C000C00001C005000100030200005F
:100250000000000F0000000000000000000000008F
:1002600011241FBECFEDCDBF75D18CC1C9CE9A016F
:10027000AB01682F87E1DCC0CF93DF931F92CDB72E
:10028000DD27698341E050E0BE016F5F7F4FEFDF04
:100290000F90DF91CF9108959A01AB01682F87E10C
:1002A000F9C0BF92CF92DF92EF92FF920F931F930C
:1002B000CF93DF93CDB7DD27C051CDBF00E010E075
:1002C000680183E0C80ED11C22E4C21622E0D206E7
:1002D000FCF4F801E25EFF4F6491F801E15EFF4F2C
:1002E000B490F801E05EFF4FF4908F2D90E024E091
:1002F000880F991F2A95E1F78C0D9D1D833492403C
:100300003CF480EFB9DF811108C0E12C86011EC0EA
:1003100065E080EFB1DF8823E1F091E021C040E1AA
:1003200050E0B801625E7F4FCE01019622D140E1DC
:1003300050E0BE016F5F7F4F8E2D8295807F8B0DC9
:1003400096DF8111EACFE394005F1F4FEF10E7CFF4
:10035000B7CF60E981E190DF91E0811101C090E0C9
:10036000892FC05FCDBFDF91CF911F910F91FF907B
:10037000EF90DF90CF90BF900895B998B19BFECFDA
:100380008DE08A95F1F70000B89A8AE08A95F1F736
:1003900000C0B99A8DE08A95F1F700000895B89AE7
:1003A0008DE08A95F1F70000B998B19BFECF8AE005
:1003B0008A95F1F700C0B8988DE08A95F1F70000B2
:1003C000089598E087FF02C0B89801C0B89A22E06B
:1003D0002A95F1F700C0B998B19BFECF2AE02A9583
:1003E000F1F700C0B99A2DE02A95F1F70000880FC7
:1003F000915041F7B89882E08A95F1F700C0B9981A
:10040000B19BFECF98E09A95F1F796B3892F817052
:1004100090FD05C0B99A28E22A95F1F7089581E088
:100420000895B898B998B19BFECFC098C198089527
:10043000EF92FF920F931F93CF93DF93D82FC62F86
:100440007A0189019ADF8D2F880FBBDF882319F08D
:10045000A6DF81E018C08C2FB4DF8111F9CFC0E096
:100460008C2F90E0801791074CF4F701E80FF91FEB
:100470008081A7DF811104C0CF5FF2CFC0E001C04F
:10048000C1E08DDF8C2FDF91CF911F910F91FF90F5
:10049000EF900895EF92FF920F931F93CF93DF9306
:1004A000062F7A01E901182F110F67DF812F89DFED
:1004B000882311F0C1E045C0802F83DF8111FACF7E
:1004C0005CDF812F81607DDF8111F4CF90E0BE0180
:1004D00061507109292F30E02C173D078CF5F70189
:1004E000E20FF31F48E080E0880FB0998160B9986F
:1004F000B19BFECF5AE05A95F1F700C0B99A5DE082
:100500005A95F1F70000415079F7261737070CF498
:10051000B89A22E02A95F1F700C0B998B19BFECFB6
:1005200058E05A95F1F7B99A22E12A95F1F700C0FF
:10053000B89852E05A95F1F700C080839F5FCACF08
:10054000C0E02DDF8C2FDF91CF911F910F91FF9095
:10055000EF90089566DF789481E090E0009711F0C5
:10056000A0DE90E0EFE3FCE93197F1F700C0000076
:10057000F5CFFB01DC0102C005900D9241505040C7
:08058000D8F70895F894FFCFAD
:00000001FF
